{
  "_format": "hh-sol-artifact-1",
  "contractName": "BondingCurveToken",
  "sourceName": "contracts/BondingCurveToken.sol",
  "abi": [
    {
      "inputs": [
        {
          "internalType": "string",
          "name": "name",
          "type": "string"
        },
        {
          "internalType": "string",
          "name": "symbol",
          "type": "string"
        },
        {
          "internalType": "uint256",
          "name": "initialA",
          "type": "uint256"
        },
        {
          "internalType": "uint256",
          "name": "initialB",
          "type": "uint256"
        }
      ],
      "stateMutability": "nonpayable",
      "type": "constructor"
    },
    {
      "inputs": [
        {
          "internalType": "address",
          "name": "spender",
          "type": "address"
        },
        {
          "internalType": "uint256",
          "name": "allowance",
          "type": "uint256"
        },
        {
          "internalType": "uint256",
          "name": "needed",
          "type": "uint256"
        }
      ],
      "name": "ERC20InsufficientAllowance",
      "type": "error"
    },
    {
      "inputs": [
        {
          "internalType": "address",
          "name": "sender",
          "type": "address"
        },
        {
          "internalType": "uint256",
          "name": "balance",
          "type": "uint256"
        },
        {
          "internalType": "uint256",
          "name": "needed",
          "type": "uint256"
        }
      ],
      "name": "ERC20InsufficientBalance",
      "type": "error"
    },
    {
      "inputs": [
        {
          "internalType": "address",
          "name": "approver",
          "type": "address"
        }
      ],
      "name": "ERC20InvalidApprover",
      "type": "error"
    },
    {
      "inputs": [
        {
          "internalType": "address",
          "name": "receiver",
          "type": "address"
        }
      ],
      "name": "ERC20InvalidReceiver",
      "type": "error"
    },
    {
      "inputs": [
        {
          "internalType": "address",
          "name": "sender",
          "type": "address"
        }
      ],
      "name": "ERC20InvalidSender",
      "type": "error"
    },
    {
      "inputs": [
        {
          "internalType": "address",
          "name": "spender",
          "type": "address"
        }
      ],
      "name": "ERC20InvalidSpender",
      "type": "error"
    },
    {
      "anonymous": false,
      "inputs": [
        {
          "indexed": true,
          "internalType": "address",
          "name": "owner",
          "type": "address"
        },
        {
          "indexed": true,
          "internalType": "address",
          "name": "spender",
          "type": "address"
        },
        {
          "indexed": false,
          "internalType": "uint256",
          "name": "value",
          "type": "uint256"
        }
      ],
      "name": "Approval",
      "type": "event"
    },
    {
      "anonymous": false,
      "inputs": [
        {
          "indexed": true,
          "internalType": "address",
          "name": "buyer",
          "type": "address"
        },
        {
          "indexed": false,
          "internalType": "uint256",
          "name": "amountSpent",
          "type": "uint256"
        },
        {
          "indexed": false,
          "internalType": "uint256",
          "name": "tokensMinted",
          "type": "uint256"
        }
      ],
      "name": "TokensPurchased",
      "type": "event"
    },
    {
      "anonymous": false,
      "inputs": [
        {
          "indexed": true,
          "internalType": "address",
          "name": "seller",
          "type": "address"
        },
        {
          "indexed": false,
          "internalType": "uint256",
          "name": "tokensSold",
          "type": "uint256"
        },
        {
          "indexed": false,
          "internalType": "uint256",
          "name": "etherReturned",
          "type": "uint256"
        }
      ],
      "name": "TokensSold",
      "type": "event"
    },
    {
      "anonymous": false,
      "inputs": [
        {
          "indexed": true,
          "internalType": "address",
          "name": "from",
          "type": "address"
        },
        {
          "indexed": true,
          "internalType": "address",
          "name": "to",
          "type": "address"
        },
        {
          "indexed": false,
          "internalType": "uint256",
          "name": "value",
          "type": "uint256"
        }
      ],
      "name": "Transfer",
      "type": "event"
    },
    {
      "inputs": [],
      "name": "A",
      "outputs": [
        {
          "internalType": "uint256",
          "name": "",
          "type": "uint256"
        }
      ],
      "stateMutability": "view",
      "type": "function"
    },
    {
      "inputs": [],
      "name": "B",
      "outputs": [
        {
          "internalType": "uint256",
          "name": "",
          "type": "uint256"
        }
      ],
      "stateMutability": "view",
      "type": "function"
    },
    {
      "inputs": [
        {
          "internalType": "address",
          "name": "owner",
          "type": "address"
        },
        {
          "internalType": "address",
          "name": "spender",
          "type": "address"
        }
      ],
      "name": "allowance",
      "outputs": [
        {
          "internalType": "uint256",
          "name": "",
          "type": "uint256"
        }
      ],
      "stateMutability": "view",
      "type": "function"
    },
    {
      "inputs": [
        {
          "internalType": "address",
          "name": "spender",
          "type": "address"
        },
        {
          "internalType": "uint256",
          "name": "value",
          "type": "uint256"
        }
      ],
      "name": "approve",
      "outputs": [
        {
          "internalType": "bool",
          "name": "",
          "type": "bool"
        }
      ],
      "stateMutability": "nonpayable",
      "type": "function"
    },
    {
      "inputs": [
        {
          "internalType": "address",
          "name": "account",
          "type": "address"
        }
      ],
      "name": "balanceOf",
      "outputs": [
        {
          "internalType": "uint256",
          "name": "",
          "type": "uint256"
        }
      ],
      "stateMutability": "view",
      "type": "function"
    },
    {
      "inputs": [],
      "name": "buy",
      "outputs": [],
      "stateMutability": "payable",
      "type": "function"
    },
    {
      "inputs": [],
      "name": "decimals",
      "outputs": [
        {
          "internalType": "uint8",
          "name": "",
          "type": "uint8"
        }
      ],
      "stateMutability": "view",
      "type": "function"
    },
    {
      "inputs": [
        {
          "internalType": "uint256",
          "name": "x0",
          "type": "uint256"
        },
        {
          "internalType": "uint256",
          "name": "deltaY",
          "type": "uint256"
        }
      ],
      "name": "getAmountOut",
      "outputs": [
        {
          "internalType": "uint256",
          "name": "deltaX",
          "type": "uint256"
        }
      ],
      "stateMutability": "view",
      "type": "function"
    },
    {
      "inputs": [
        {
          "internalType": "uint256",
          "name": "x0",
          "type": "uint256"
        },
        {
          "internalType": "uint256",
          "name": "deltaX",
          "type": "uint256"
        }
      ],
      "name": "getFundsReceived",
      "outputs": [
        {
          "internalType": "uint256",
          "name": "deltaY",
          "type": "uint256"
        }
      ],
      "stateMutability": "view",
      "type": "function"
    },
    {
      "inputs": [],
      "name": "name",
      "outputs": [
        {
          "internalType": "string",
          "name": "",
          "type": "string"
        }
      ],
      "stateMutability": "view",
      "type": "function"
    },
    {
      "inputs": [],
      "name": "reserveTokenBalance",
      "outputs": [
        {
          "internalType": "uint256",
          "name": "",
          "type": "uint256"
        }
      ],
      "stateMutability": "view",
      "type": "function"
    },
    {
      "inputs": [
        {
          "internalType": "uint256",
          "name": "amount",
          "type": "uint256"
        }
      ],
      "name": "sell",
      "outputs": [],
      "stateMutability": "nonpayable",
      "type": "function"
    },
    {
      "inputs": [],
      "name": "symbol",
      "outputs": [
        {
          "internalType": "string",
          "name": "",
          "type": "string"
        }
      ],
      "stateMutability": "view",
      "type": "function"
    },
    {
      "inputs": [],
      "name": "totalSupply",
      "outputs": [
        {
          "internalType": "uint256",
          "name": "",
          "type": "uint256"
        }
      ],
      "stateMutability": "view",
      "type": "function"
    },
    {
      "inputs": [
        {
          "internalType": "address",
          "name": "to",
          "type": "address"
        },
        {
          "internalType": "uint256",
          "name": "value",
          "type": "uint256"
        }
      ],
      "name": "transfer",
      "outputs": [
        {
          "internalType": "bool",
          "name": "",
          "type": "bool"
        }
      ],
      "stateMutability": "nonpayable",
      "type": "function"
    },
    {
      "inputs": [
        {
          "internalType": "address",
          "name": "from",
          "type": "address"
        },
        {
          "internalType": "address",
          "name": "to",
          "type": "address"
        },
        {
          "internalType": "uint256",
          "name": "value",
          "type": "uint256"
        }
      ],
      "name": "transferFrom",
      "outputs": [
        {
          "internalType": "bool",
          "name": "",
          "type": "bool"
        }
      ],
      "stateMutability": "nonpayable",
      "type": "function"
    }
  ],
  "bytecode": "0x60c060405234801561001057600080fd5b5060405161262238038061262283398181016040528101906100329190610222565b8383816003908161004391906104d8565b50806004908161005391906104d8565b50505081608081815250508060a081815250506000600581905550505050506105aa565b6000604051905090565b600080fd5b600080fd5b600080fd5b600080fd5b6000601f19601f8301169050919050565b7f4e487b7100000000000000000000000000000000000000000000000000000000600052604160045260246000fd5b6100de82610095565b810181811067ffffffffffffffff821117156100fd576100fc6100a6565b5b80604052505050565b6000610110610077565b905061011c82826100d5565b919050565b600067ffffffffffffffff82111561013c5761013b6100a6565b5b61014582610095565b9050602081019050919050565b60005b83811015610170578082015181840152602081019050610155565b60008484015250505050565b600061018f61018a84610121565b610106565b9050828152602081018484840111156101ab576101aa610090565b5b6101b6848285610152565b509392505050565b600082601f8301126101d3576101d261008b565b5b81516101e384826020860161017c565b91505092915050565b6000819050919050565b6101ff816101ec565b811461020a57600080fd5b50565b60008151905061021c816101f6565b92915050565b6000806000806080858703121561023c5761023b610081565b5b600085015167ffffffffffffffff81111561025a57610259610086565b5b610266878288016101be565b945050602085015167ffffffffffffffff81111561028757610286610086565b5b610293878288016101be565b93505060406102a48782880161020d565b92505060606102b58782880161020d565b91505092959194509250565b600081519050919050565b7f4e487b7100000000000000000000000000000000000000000000000000000000600052602260045260246000fd5b6000600282049050600182168061031357607f821691505b602082108103610326576103256102cc565b5b50919050565b60008190508160005260206000209050919050565b60006020601f8301049050919050565b600082821b905092915050565b60006008830261038e7fffffffffffffffffffffffffffffffffffffffffffffffffffffffffffffffff82610351565b6103988683610351565b95508019841693508086168417925050509392505050565b6000819050919050565b60006103d56103d06103cb846101ec565b6103b0565b6101ec565b9050919050565b6000819050919050565b6103ef836103ba565b6104036103fb826103dc565b84845461035e565b825550505050565b600090565b61041861040b565b6104238184846103e6565b505050565b5b818110156104475761043c600082610410565b600181019050610429565b5050565b601f82111561048c5761045d8161032c565b61046684610341565b81016020851015610475578190505b61048961048185610341565b830182610428565b50505b505050565b600082821c905092915050565b60006104af60001984600802610491565b1980831691505092915050565b60006104c8838361049e565b9150826002028217905092915050565b6104e1826102c1565b67ffffffffffffffff8111156104fa576104f96100a6565b5b61050482546102fb565b61050f82828561044b565b600060209050601f8311600181146105425760008415610530578287015190505b61053a85826104bc565b8655506105a2565b601f1984166105508661032c565b60005b8281101561057857848901518255600182019150602085019450602081019050610553565b868310156105955784890151610591601f89168261049e565b8355505b6001600288020188555050505b505050505050565b60805160a0516120376105eb600039600081816104fc015281816105960152610656015260008181610571015281816106310152610b5901526120376000f3fe6080604052600436106100f35760003560e01c80637cabb7cf1161008a578063a9059cbb11610059578063a9059cbb14610335578063dd62ed3e14610372578063e4849b32146103af578063f446c1d0146103d8576100f3565b80637cabb7cf14610286578063901ce73e146102c357806395d89b4114610300578063a6f2ae3a1461032b576100f3565b8063313ce567116100c6578063313ce567146101c857806332e7c5bf146101f357806370a082311461021e578063729f76fa1461025b576100f3565b806306fdde03146100f8578063095ea7b31461012357806318160ddd1461016057806323b872dd1461018b575b600080fd5b34801561010457600080fd5b5061010d610403565b60405161011a919061182b565b60405180910390f35b34801561012f57600080fd5b5061014a600480360381019061014591906118e6565b610495565b6040516101579190611941565b60405180910390f35b34801561016c57600080fd5b506101756104b8565b604051610182919061196b565b60405180910390f35b34801561019757600080fd5b506101b260048036038101906101ad9190611986565b6104c2565b6040516101bf9190611941565b60405180910390f35b3480156101d457600080fd5b506101dd6104f1565b6040516101ea91906119f5565b60405180910390f35b3480156101ff57600080fd5b506102086104fa565b604051610215919061196b565b60405180910390f35b34801561022a57600080fd5b5061024560048036038101906102409190611a10565b61051e565b604051610252919061196b565b60405180910390f35b34801561026757600080fd5b50610270610566565b60405161027d919061196b565b60405180910390f35b34801561029257600080fd5b506102ad60048036038101906102a89190611a3d565b61056c565b6040516102ba919061196b565b60405180910390f35b3480156102cf57600080fd5b506102ea60048036038101906102e59190611a3d565b61062c565b6040516102f7919061196b565b60405180910390f35b34801561030c57600080fd5b50610315610735565b604051610322919061182b565b60405180910390f35b6103336107c7565b005b34801561034157600080fd5b5061035c600480360381019061035791906118e6565b61089b565b6040516103699190611941565b60405180910390f35b34801561037e57600080fd5b5061039960048036038101906103949190611a7d565b6108be565b6040516103a6919061196b565b60405180910390f35b3480156103bb57600080fd5b506103d660048036038101906103d19190611abd565b610945565b005b3480156103e457600080fd5b506103ed610b57565b6040516103fa919061196b565b60405180910390f35b60606003805461041290611b19565b80601f016020809104026020016040519081016040528092919081815260200182805461043e90611b19565b801561048b5780601f106104605761010080835404028352916020019161048b565b820191906000526020600020905b81548152906001019060200180831161046e57829003601f168201915b5050505050905090565b6000806104a0610b7b565b90506104ad818585610b83565b600191505092915050565b6000600254905090565b6000806104cd610b7b565b90506104da858285610b95565b6104e5858585610c29565b60019150509392505050565b60006012905090565b7f000000000000000000000000000000000000000000000000000000000000000081565b60008060008373ffffffffffffffffffffffffffffffffffffffff1673ffffffffffffffffffffffffffffffffffffffff168152602001908152602001600020549050919050565b60055481565b6000807f0000000000000000000000000000000000000000000000000000000000000000905060007f0000000000000000000000000000000000000000000000000000000000000000905060006105d46105cf8784610d1d90919063ffffffff16565b610d55565b905060006105ed838588610f459092919063ffffffff16565b826105f89190611b79565b9050866106168461060884611002565b61125e90919063ffffffff16565b6106209190611bad565b94505050505092915050565b6000807f0000000000000000000000000000000000000000000000000000000000000000905060007f00000000000000000000000000000000000000000000000000000000000000009050838510156106ba576040517f08c379a00000000000000000000000000000000000000000000000000000000081526004016106b190611c53565b60405180910390fd5b60006106d76106d28784610d1d90919063ffffffff16565b610d55565b905060006107016106fc87896106ed9190611bad565b85610d1d90919063ffffffff16565b610d55565b9050600081836107119190611c7d565b9050610728818587610f459092919063ffffffff16565b9550505050505092915050565b60606004805461074490611b19565b80601f016020809104026020016040519081016040528092919081815260200182805461077090611b19565b80156107bd5780601f10610792576101008083540402835291602001916107bd565b820191906000526020600020905b8154815290600101906020018083116107a057829003601f168201915b5050505050905090565b6000341161080a576040517f08c379a000000000000000000000000000000000000000000000000000000000815260040161080190611d0c565b60405180910390fd5b60006108146104b8565b90506000610822823461056c565b905034600560008282546108369190611b79565b92505081905550610847338261129b565b3373ffffffffffffffffffffffffffffffffffffffff167f8fafebcaf9d154343dad25669bfa277f4fbacd7ac6b0c4fed522580e040a0f33348360405161088f929190611d2c565b60405180910390a25050565b6000806108a6610b7b565b90506108b3818585610c29565b600191505092915050565b6000600160008473ffffffffffffffffffffffffffffffffffffffff1673ffffffffffffffffffffffffffffffffffffffff16815260200190815260200160002060008373ffffffffffffffffffffffffffffffffffffffff1673ffffffffffffffffffffffffffffffffffffffff16815260200190815260200160002054905092915050565b60008111610988576040517f08c379a000000000000000000000000000000000000000000000000000000000815260040161097f90611da1565b60405180910390fd5b806109923361051e565b10156109d3576040517f08c379a00000000000000000000000000000000000000000000000000000000081526004016109ca90611e0d565b60405180910390fd5b60006109dd6104b8565b905060006109eb828461062c565b9050600554811115610a32576040517f08c379a0000000000000000000000000000000000000000000000000000000008152600401610a2990611e9f565b60405180910390fd5b8060056000828254610a449190611bad565b92505081905550610a55338461131d565b60003373ffffffffffffffffffffffffffffffffffffffff1682604051610a7b90611ef0565b60006040518083038185875af1925050503d8060008114610ab8576040519150601f19603f3d011682016040523d82523d6000602084013e610abd565b606091505b5050905080610b01576040517f08c379a0000000000000000000000000000000000000000000000000000000008152600401610af890611f51565b60405180910390fd5b3373ffffffffffffffffffffffffffffffffffffffff167f2dcf9433d75db0d8b1c172641f85e319ffe4ad22e108a95d1847ceb906e5195d8584604051610b49929190611d2c565b60405180910390a250505050565b7f000000000000000000000000000000000000000000000000000000000000000081565b600033905090565b610b90838383600161139f565b505050565b6000610ba184846108be565b90507fffffffffffffffffffffffffffffffffffffffffffffffffffffffffffffffff8114610c235781811015610c13578281836040517ffb8f41b2000000000000000000000000000000000000000000000000000000008152600401610c0a93929190611f80565b60405180910390fd5b610c228484848403600061139f565b5b50505050565b600073ffffffffffffffffffffffffffffffffffffffff168373ffffffffffffffffffffffffffffffffffffffff1603610c9b5760006040517f96c6fd1e000000000000000000000000000000000000000000000000000000008152600401610c929190611fb7565b60405180910390fd5b600073ffffffffffffffffffffffffffffffffffffffff168273ffffffffffffffffffffffffffffffffffffffff1603610d0d5760006040517fec442f05000000000000000000000000000000000000000000000000000000008152600401610d049190611fb7565b60405180910390fd5b610d18838383611576565b505050565b60008160001904831115610d40578115610d3f5763bac65e5b6000526004601cfd5b5b670de0b6b3a764000082840204905092915050565b60007ffffffffffffffffffffffffffffffffffffffffffffffffdc0d0570925a462d7821315610f4057680755bf798b4a1bf1e58212610d9d5763a37bfec96000526004601cfd5b6503782dace9d9604e83901b81610db757610db6611fd2565b5b059150600060606b8000000000000000000000006bb17217f7d1cf79abc9e3b398606086901b81610deb57610dea611fd2565b5b0501901d90506bb17217f7d1cf79abc9e3b39881028303925060006c10fe68e7fd37d0007b713f7650840190506d02d16720577bd19bf614176fe9ea6060858302901d01905060006d04a4fd9f2a8b96949216d2255a6c8583010390506e0587f503bb6ea29d25fcb7401964506060838302901d01905079d835ebba824c98fb31b83b2ca45c00000000000000000000000085820201905060006c240c330e9fb2d9cbaf0fd5aafc860390506d0277594991cfc85f6e2461837cd96060878302901d0190506d1a521255e34f6a5061b25ef1c9c46060878302901d0390506db1bbb201f443cf962f1a1d3db4a56060878302901d0190506e02c72388d9f74f51a9331fed693f156060878302901d0390506e05180bb14799ab47a8a8cb2a527d576060878302901d01905080820594508360c30374029d9dc38563c32e5c2f6dc192ee70ef65f9978af38602901c9450505050505b919050565b60008284029050600115610ffb5781838583041485151702610ff5576000198385098181108201810383858709846000038516828611610f8d5763ae47f7026000526004601cfd5b808604955085600302600218808702600203810290508087026002038102905080870260020381029050808702600203810290508087026002038102905080818802600203028284880304600184856000030401888611870302170295505050505050610ffb565b81810490505b9392505050565b6000816fffffffffffffffffffffffffffffffff1060071b905081811c67ffffffffffffffff1060061b8117905081811c63ffffffff1060051b8117905081811c61ffff1060041b8117905081811c60ff1060031b811790506000821361107157631615e6386000526004601cfd5b7ff8f9f9faf9fdfafbf9fdfcfdfafbfcfef9fafdfafcfcfbfefafafcfbffffffff6f8421084210842108cc6318c6db6d54be83831c1c601f161a8118905081811b609f1c91506c8c3f38e95a6b1ff2ab1c3b3437828384856c29508e458543d8aa4df2abee78010260601d6d0139601a2efabe717e604cbb4894010260601d6d02247f7a7b6594320649aa03aba1010260601d036d02384773bdf1ac5676facced609183820260601d0390506cb9a025d814b29c212b8b1a07ce83820260601d0390506c0a09507084cc699bb0e71ea86a60601b838202039050826c465772b2bbbb5f824b15207a300180840260601d6d0388eaa27412d5aca026815d636e01905080840260601d6d0df99ac502031bf953eff472fdcc01905080840260601d6d13cdffb29d51d99322bdff5f221101905080840260601d6d0a0f742023def783a307a986912e01905080840260601d6d01920d8043ca89b5239253284e4201905080840260601d6c0b7a86d7375468fac667a0a527019050808205915081711340daa0d5f769dba1915cef59f0815a55060291508183609f037d0267a36c0c95b3975ab3ee5b203a7614a3f75373f047d803ae7b6687f2b302019150817d57115e47018c7177eebf7cd370a3356a1b7863008a5ae8028c72b88642840191508160ae1d92505050919050565b6000670de0b6b3a7640000600019046001018310820261128657637c5f487d6000526004601cfd5b81670de0b6b3a7640000840204905092915050565b600073ffffffffffffffffffffffffffffffffffffffff168273ffffffffffffffffffffffffffffffffffffffff160361130d5760006040517fec442f050000000000000000000000000000000000000000000000000000000081526004016113049190611fb7565b60405180910390fd5b61131960008383611576565b5050565b600073ffffffffffffffffffffffffffffffffffffffff168273ffffffffffffffffffffffffffffffffffffffff160361138f5760006040517f96c6fd1e0000000000000000000000000000000000000000000000000000000081526004016113869190611fb7565b60405180910390fd5b61139b82600083611576565b5050565b600073ffffffffffffffffffffffffffffffffffffffff168473ffffffffffffffffffffffffffffffffffffffff16036114115760006040517fe602df050000000000000000000000000000000000000000000000000000000081526004016114089190611fb7565b60405180910390fd5b600073ffffffffffffffffffffffffffffffffffffffff168373ffffffffffffffffffffffffffffffffffffffff16036114835760006040517f94280d6200000000000000000000000000000000000000000000000000000000815260040161147a9190611fb7565b60405180910390fd5b81600160008673ffffffffffffffffffffffffffffffffffffffff1673ffffffffffffffffffffffffffffffffffffffff16815260200190815260200160002060008573ffffffffffffffffffffffffffffffffffffffff1673ffffffffffffffffffffffffffffffffffffffff168152602001908152602001600020819055508015611570578273ffffffffffffffffffffffffffffffffffffffff168473ffffffffffffffffffffffffffffffffffffffff167f8c5be1e5ebec7d5bd14f71427d1e84f3dd0314c0f7b2291e5b200ac8c7c3b92584604051611567919061196b565b60405180910390a35b50505050565b600073ffffffffffffffffffffffffffffffffffffffff168373ffffffffffffffffffffffffffffffffffffffff16036115c85780600260008282546115bc9190611b79565b9250508190555061169b565b60008060008573ffffffffffffffffffffffffffffffffffffffff1673ffffffffffffffffffffffffffffffffffffffff16815260200190815260200160002054905081811015611654578381836040517fe450d38c00000000000000000000000000000000000000000000000000000000815260040161164b93929190611f80565b60405180910390fd5b8181036000808673ffffffffffffffffffffffffffffffffffffffff1673ffffffffffffffffffffffffffffffffffffffff16815260200190815260200160002081905550505b600073ffffffffffffffffffffffffffffffffffffffff168273ffffffffffffffffffffffffffffffffffffffff16036116e45780600260008282540392505081905550611731565b806000808473ffffffffffffffffffffffffffffffffffffffff1673ffffffffffffffffffffffffffffffffffffffff168152602001908152602001600020600082825401925050819055505b8173ffffffffffffffffffffffffffffffffffffffff168373ffffffffffffffffffffffffffffffffffffffff167fddf252ad1be2c89b69c2b068fc378daa952ba7f163c4a11628f55a4df523b3ef8360405161178e919061196b565b60405180910390a3505050565b600081519050919050565b600082825260208201905092915050565b60005b838110156117d55780820151818401526020810190506117ba565b60008484015250505050565b6000601f19601f8301169050919050565b60006117fd8261179b565b61180781856117a6565b93506118178185602086016117b7565b611820816117e1565b840191505092915050565b6000602082019050818103600083015261184581846117f2565b905092915050565b600080fd5b600073ffffffffffffffffffffffffffffffffffffffff82169050919050565b600061187d82611852565b9050919050565b61188d81611872565b811461189857600080fd5b50565b6000813590506118aa81611884565b92915050565b6000819050919050565b6118c3816118b0565b81146118ce57600080fd5b50565b6000813590506118e0816118ba565b92915050565b600080604083850312156118fd576118fc61184d565b5b600061190b8582860161189b565b925050602061191c858286016118d1565b9150509250929050565b60008115159050919050565b61193b81611926565b82525050565b60006020820190506119566000830184611932565b92915050565b611965816118b0565b82525050565b6000602082019050611980600083018461195c565b92915050565b60008060006060848603121561199f5761199e61184d565b5b60006119ad8682870161189b565b93505060206119be8682870161189b565b92505060406119cf868287016118d1565b9150509250925092565b600060ff82169050919050565b6119ef816119d9565b82525050565b6000602082019050611a0a60008301846119e6565b92915050565b600060208284031215611a2657611a2561184d565b5b6000611a348482850161189b565b91505092915050565b60008060408385031215611a5457611a5361184d565b5b6000611a62858286016118d1565b9250506020611a73858286016118d1565b9150509250929050565b60008060408385031215611a9457611a9361184d565b5b6000611aa28582860161189b565b9250506020611ab38582860161189b565b9150509250929050565b600060208284031215611ad357611ad261184d565b5b6000611ae1848285016118d1565b91505092915050565b7f4e487b7100000000000000000000000000000000000000000000000000000000600052602260045260246000fd5b60006002820490506001821680611b3157607f821691505b602082108103611b4457611b43611aea565b5b50919050565b7f4e487b7100000000000000000000000000000000000000000000000000000000600052601160045260246000fd5b6000611b84826118b0565b9150611b8f836118b0565b9250828201905080821115611ba757611ba6611b4a565b5b92915050565b6000611bb8826118b0565b9150611bc3836118b0565b9250828203905081811115611bdb57611bda611b4a565b5b92915050565b7f53656c6c696e67206d6f726520746f6b656e73207468616e20617661696c616260008201527f6c6520737570706c790000000000000000000000000000000000000000000000602082015250565b6000611c3d6029836117a6565b9150611c4882611be1565b604082019050919050565b60006020820190508181036000830152611c6c81611c30565b9050919050565b6000819050919050565b6000611c8882611c73565b9150611c9383611c73565b9250828203905081811260008412168282136000851215161715611cba57611cb9611b4a565b5b92915050565b7f4d7573742073656e642045544820746f2062757920746f6b656e730000000000600082015250565b6000611cf6601b836117a6565b9150611d0182611cc0565b602082019050919050565b60006020820190508181036000830152611d2581611ce9565b9050919050565b6000604082019050611d41600083018561195c565b611d4e602083018461195c565b9392505050565b7f4d7573742073656c6c206d6f7265207468616e203020746f6b656e7300000000600082015250565b6000611d8b601c836117a6565b9150611d9682611d55565b602082019050919050565b60006020820190508181036000830152611dba81611d7e565b9050919050565b7f496e73756666696369656e7420746f6b656e2062616c616e6365000000000000600082015250565b6000611df7601a836117a6565b9150611e0282611dc1565b602082019050919050565b60006020820190508181036000830152611e2681611dea565b9050919050565b7f4e6f7420656e6f75676820726573657276657320746f2073656c6c20746f6b6560008201527f6e73000000000000000000000000000000000000000000000000000000000000602082015250565b6000611e896022836117a6565b9150611e9482611e2d565b604082019050919050565b60006020820190508181036000830152611eb881611e7c565b9050919050565b600081905092915050565b50565b6000611eda600083611ebf565b9150611ee582611eca565b600082019050919050565b6000611efb82611ecd565b9150819050919050565b7f5472616e73666572206661696c65642e00000000000000000000000000000000600082015250565b6000611f3b6010836117a6565b9150611f4682611f05565b602082019050919050565b60006020820190508181036000830152611f6a81611f2e565b9050919050565b611f7a81611872565b82525050565b6000606082019050611f956000830186611f71565b611fa2602083018561195c565b611faf604083018461195c565b949350505050565b6000602082019050611fcc6000830184611f71565b92915050565b7f4e487b7100000000000000000000000000000000000000000000000000000000600052601260045260246000fdfea26469706673582212200f4039c4c4f927e769b16ed55b9d9b1dbf20ed4a83a7974ed9b04823487e160164736f6c634300081b0033",
  "linkReferences": {},
  "deployedLinkReferences": {}
}